:100000000A128A11FC2F00308A000408840A820731
:0E001000003474346534733474346534003451
:100ED800F00083160313981C722F732F6D2F700860
:100EE8008312031399000800F40074080A128A1187
:100EF8008C270A128A110D300A128A116C270A12DD
:100F08008A110A300A128A116C270A128A110800FB
:100F1800F300F101F201A32F7108730784000A128C
:100F28008A1103200A128A110A128A116C270A12DE
:100F38008A110130F1070318F20A0030F20771082C
:100F4800730784000A128A1103200A128A11003AD0
:100F5800031DAF2FB02F902F0800073083160313FF
:100F68009C008501860180308700880189018312F1
:100F78000313850186018701880189011F308316C3
:100F8800031399001812981683120313981718164A
:100F980001300A128A1178270A128A118312031360
:100FA80086160D30F700AF30F600B630F500F50BB9
:100FB800DB2FF60BDB2FF70BDB2F000001300A12BB
:100FC8008A1178270A128A118312031386120D30A8
:100FD800F700AF30F600B630F500F50BF12FF60B41
:100FE800F12FF70BF12F0000CC2F0A128A110028DD
:080FF80083010A128A11B12FD6
:08400000FF3FFF3FFF3FFF3FC0
:02400E003A3F37
:00000001FF
