:060000000A128A11F62F1E
:100F22007F34F000700C83120313031C07100318A4
:100F320007140800F000700883120313930083164D
:100F42000313141CA52FA62FA02F0800F2000130B6
:100F52000A128A1192270A128A1101300A128A1180
:100F62009B270A128A1172080A128A119B270A12F7
:100F72008A1171080A128A119B270A128A110030FB
:100F82000A128A1192270A128A1108000730831660
:100F920003139C008701103083120313870083160A
:100FA2000313940120308312031394007508F10097
:100FB20075080A128A11A7270A128A114130F40011
:100FC200EE30F300F30BE32FF40BE32F00000130BC
:100FD200FF007F08F507750A031DF02FF12FD72FA9
:100FE200F501D72F0A128A1100280A128A119127B5
:0E0FF2000A128A11F50083010A128A11C72F14
:08400000FF3FFF3FFF3FFF3FC0
:02400E003A3F37
:00000001FF
