:100000000A128A11F92FFF1B0D2883137F188317FB
:100010000008840A0319FF0A08007F087F398A0054
:0A0020000408840A0319FF0A820095
:10022400F0007008303E0800F0007008D03E08006E
:10023400831203138C1E1F2920291A291A08080067
:100244000A128A114B210A128A11831603131114FC
:1002540008000A128A114B210A128A118316031309
:1002640011150800F0000A128A114B210A128A1192
:1002740070088312031393000800F000831603131D
:10028400981C4529462940297008831203139900B4
:1002940008008316031311081F39031D522953291B
:1002A4004B291419562957294B290800F0000A1222
:1002B4008A114B210A128A11700C83160313031C32
:1002C400911203189116111608008316031387154B
:1002D4000716283083120313940083160313910125
:1002E4003130930094010800831603138717071312
:1002F40083120313871307131F3083160313990004
:100304001812981683120313981718160800FA0087
:10031400F9017A1C8E298F2993297808FF007F0818
:10032400F9070310F80D0310FA0C7A08031D9B2932
:100334009C298B29790808007808F1007908F200D3
:100344000A128A1144220A128A110D300A128A11E1
:100354003F210A128A110A300A128A113F210A1215
:100364008A110800F1000A128A114B210A128A111B
:100374008316031391150A128A114B210A128A114A
:10038400831203131308F20071080A128A11582108
:100394000A128A117208080083120313A0000F3096
:1003A4002005FB000A30F8002008FC00FD017C0851
:1003B400F2007D08F3001030F0000030F1000A1262
:1003C4008A1171230A128A1170080A128A1189216A
:1003D4000A128A117B0708000A128A1122210A12C2
:1003E4008A11D0300A128A1134210A128A11073074
:1003F4000A128A1134210A128A1110300A128A113F
:1004040034210A128A110A128A112B210A128A1122
:100414000230F3004530F200A930F100F10B102A4C
:10042400F20B102AF30B102A172A0800FD000A30D9
:10043400F0000030F1007D08F800F9017808F200BE
:100444007908F3000A128A1171230A128A117008BA
:10045400FA0004300310FA0DFF3E031D2C2A0A3063
:10046400F0000030F1007D08FB00FC017B08F20085
:100474007C08F3000A128A1118230A128A117008E0
:100484007A070800F601F701692A76087107F40073
:100494007208F3000318F30AF61F512AF3037308D2
:1004A400F500750883120313FF00740884000A1210
:1004B4008A1103200A128A110A128A113F210A1290
:1004C4008A110130F6070318F70A0030F707760897
:1004D4007107F4007208F3000318F30AF61F732A75
:1004E400F3037308F500750883120313FF007408FF
:1004F40084000A128A1103200A128A11003A031D89
:10050400842A852A472A0800F7000A128A11222120
:100514000A128A11D0300A128A1134210A128A115D
:1005240000300A128A1134210A128A1177087F399D
:100534000A128A1134210A128A1171080A128A11C4
:1005440034210A128A1172080A128A1134210A12F9
:100554008A1173080A128A1134210A128A11740842
:100564000A128A1134210A128A1175080A128A1190
:1005740034210A128A1176080A128A1134210A12C5
:100584008A110A128A112B210A128A1108000730D3
:10059400831603139C000A128A1176210A128A1107
:1005A400023083120313B5004530B400A930B30000
:1005B400B30BDA2AB40BDA2AB50BDA2A0A128A1137
:1005C40067210A128A11023083120313B5004530E1
:1005D400B400A930B300B30BED2AB40BED2AB50B6C
:1005E400ED2A0A128A11EE210A128A110A128A11BC
:1005F4001A210A128A1183120313B6000D2B0A1250
:100604008A110F260A128A11F82A0A128A1146241C
:100614000A128A11F82A3608483A0319012B1E3A9D
:100624000319072BF82A0A128A110028F501F31F6F
:100634001C2B1D2B242BF209F309F20A0319F30ACC
:10064400F501F50AF11F272B282B2D2BF009F109B1
:10065400F00A0319F10A700871040319322B332BC1
:10066400622BF401F40A412B01300310F00DF10D5B
:10067400FF3E031D372B0130FF007F08F407F11FF5
:10068400442B452B362B71087302031D4B2B70082A
:100694007202031C4E2B4F2B552B7008F20271086B
:1006A400031CF303F30201300310F10CF00CFF3EC2
:1006B400031D562B0130F402031D612B622B452BC5
:1006C40075080319662B672B6C2BF209F309F20AE0
:1006D4000319F30A7308F1007208F0000800F50129
:1006E400F11F752B762B7D2BF009F109F00A031904
:1006F400F10AF501F50AF31F802B812B8A2BF209ED
:10070400F309F20A0319F30A0130FF007F08F50622
:10071400F601F701700871040319912B922BC92B70
:10072400F401F40AA02B01300310F00DF10DFF3E8B
:10073400031D962B0130FF007F08F407F11FA32B44
:10074400A42B952B01300310F60DF70DFF3E031D6E
:10075400A52B71087302031DB12B70087202031CD0
:10076400B42BB52BBC2B7008F2027108031CF303E5
:10077400F302761401300310F10CF00CFF3E031D5C
:10078400BD2B0130F402031DC82BC92BA42B750803
:100794000319CD2BCE2BD32BF609F709F60A03192F
:1007A400F70A7708F1007608F0000800F9000A1249
:1007B4008A1122210A128A11D0300A128A11342194
:1007C4000A128A1100300A128A1134210A128A117B
:1007D4000A128A112B210A128A110A128A11222161
:1007E4000A128A11D1300A128A1134210A128A118A
:1007F4007908840000300A128A11B4210A128A117D
:10080400831380007308840000300A128A11B42113
:100814000A128A11831380007408840000300A12BB
:100824008A11B4210A128A11831380007508840086
:1008340000300A128A11B4210A128A11831380002B
:100844007608840000300A128A11B4210A128A112F
:10085400831380007708840000300A128A11B421BF
:100864000A128A11831380007808840001300A1266
:100874008A11B4210A128A11831380000A128A1180
:100884002B210A128A110800D830F8008830F900A8
:100894000A128A119E210A128A110A128A111A2135
:1008A4000A128A110A128A1116210A128A11831253
:1008B4000313A6000A128A111A210A128A110A12B3
:1008C4008A1116210A128A1183120313A7000A122D
:1008D4008A111A210A128A11F630F8008830F900B8
:1008E4000A128A119E210A128A110A128A111A21E5
:1008F4000A128A110A128A1116210A128A11831203
:100904000313A8000A128A111A210A128A110A1260
:100914008A1116210A128A1183120313A9000A12DA
:100924008A111A210A128A11E730F8008830F90076
:100934000A128A119E210A128A110A128A111A2194
:100944000A128A110A128A1116210A128A118312B2
:100954000313AA000A128A111A210A128A110A120E
:100964008A1116210A128A1183120313AB00003074
:10097400F8008830F9000A128A119E210A128A119D
:100984001130F8008930F9000A128A119E210A12E6
:100994008A116F30F8008830F9000A128A119E21FA
:1009A4000A128A11A630F8008830F9000A128A1156
:1009B4009E210A128A119430F8008830F9000A1234
:1009C4008A119E210A128A118230F8008830F900B7
:1009D4000A128A119E210A128A11B730F80088304F
:1009E400F9000A128A119E210A128A110530F800B0
:1009F4008930F9000A128A119E210A128A110A12F8
:100A04008A111A210A128A110A128A1116210A124B
:100A14008A1183120313AC00C830F8008830F9003F
:100A24000A128A119E210A128A110A128A111A21A3
:100A34000A128A110A128A1116210A128A118312C1
:100A44000313A0000A128A111A210A128A110A1227
:100A54008A1116210A128A1183120313A1000A12A1
:100A64008A111A210A128A114730F8008830F900D5
:100A74000A128A119E210A128A110A128A111A2153
:100A84000A128A110A128A1116210A128A11831271
:100A94000313A2000A128A111A210A128A110A12D5
:100AA4008A1116210A128A1183120313A3000A124F
:100AB4008A111A210A128A113230F8008830F9009A
:100AC4000A128A119E210A128A110A128A111A2103
:100AD4000A128A110A128A1116210A128A11831221
:100AE4000313A4000A128A111A210A128A110A1283
:100AF4008A1116210A128A1183120313A5000A30DF
:100B0400F80026080A128A1189210A128A1183120E
:100B1400031327070A128A1118220A128A11831250
:100B24000313AD000A30F80028080A128A1189213B
:100B34000A128A118312031329070A128A1118222E
:100B44000A128A1183120313AE000A30F8002A082D
:100B54000A128A1189210A128A11831203132B079C
:100B64000A128A1118220A128A1183120313AF007F
:100B74000A30F80020080A128A1189210A128A11FF
:100B84008312031321070A128A1118220A128A11E6
:100B940083120313B0000A30F80022080A128A11E3
:100BA40089210A128A118312031323070A128A1154
:100BB40018220A128A1183120313B1000A30F800B2
:100BC40024080A128A1189210A128A118312031332
:100BD40025070A128A1118220A128A118312031392
:100BE400B2003108F1003008F2002C08F3002D089F
:100BF400F4002E08F5002F08F60032080A128A11B4
:100C040086220A128A115B30F8008830F9000A1231
:100C14008A119E210A128A11080083120313A40167
:100C2400A501A601A301A701A801A9012530F3008C
:100C34002630F4002330F5002730F6002830F70082
:100C44002930F80024300A128A11D8230A128A1192
:100C540028300A128A113F210A128A111030F0003A
:100C64000030F100831203132708A100A201210818
:100C7400F2002208F3000A128A1171230A128A115F
:100C840070080A128A11CE210A128A110A128A11D4
:100C940012210A128A110A128A113F210A128A1198
:100CA4008312031327080F390A128A11CE210A125C
:100CB4008A110A128A1112210A128A110A128A113D
:100CC4003F210A128A112F300A128A113F210A1277
:100CD4008A111030F0000030F10083120313280849
:100CE400A100A2012108F2002208F3000A128A11CD
:100CF40071230A128A1170080A128A11CE210A126B
:100D04008A110A128A1112210A128A110A128A11EC
:100D14003F210A128A118312031328080F390A1279
:100D24008A11CE210A128A110A128A1112210A1278
:100D34008A110A128A113F210A128A112F300A12CB
:100D44008A113F210A128A111030F0000030F1009C
:100D5400831203132908A100A2012108F20022082A
:100D6400F3000A128A1171230A128A1170080A12F6
:100D74008A11CE210A128A110A128A1112210A1228
:100D84008A110A128A113F210A128A11831203134B
:100D940029080F390A128A11CE210A128A110A125D
:100DA4008A1112210A128A110A128A113F210A1287
:100DB4008A1129300A128A113F210A128A11282F16
:100DC4001D30F1008930F2000A128A1144220A12FD
:100DD4008A11412F7230F1008830F2000A128A1110
:100DE40044220A128A11412FA930F1008830F200FE
:100DF4000A128A1144220A128A11412F9730F100F3
:100E04008830F2000A128A1144220A128A11412FF0
:100E14008530F1008830F2000A128A1144220A1245
:100E24008A11412FBA30F1008830F2000A128A1177
:100E340044220A128A11412F0830F1008930F2004D
:100E44000A128A1144220A128A11412F83120313AF
:100E54002308013A0319E22E033A0319EC2E013A4E
:100E64000319F62E073A0319002F013A03190A2F22
:100E7400033A0319142F013A03191E2F412F10307E
:100E8400F0000030F100831203132608A100A20130
:100E94002108F2002208F3000A128A1171230A12AF
:100EA4008A1170080A128A11CE210A128A110A12B2
:100EB4008A1112210A128A110A128A113F210A1276
:100EC4008A118312031326080F390A128A11CE21BC
:100ED4000A128A110A128A1112210A128A110A129A
:100EE4008A113F210A128A113A300A128A113F21CB
:100EF4000A128A111030F0000030F100831203133B
:100F04002508A100A2012108F2002208F3000A1218
:100F14008A1171230A128A1170080A128A11CE21C9
:100F24000A128A110A128A1112210A128A110A1249
:100F34008A113F210A128A118312031325080F39DB
:100F44000A128A11CE210A128A110A128A11122156
:100F54000A128A110A128A113F210A128A113A309E
:100F64000A128A113F210A128A111030F00000304F
:100F7400F100831203132408A100A2012108F20046
:100F84002208F3000A128A1171230A128A117008C6
:100F94000A128A11CE210A128A110A128A11122106
:100FA4000A128A110A128A113F210A128A11831223
:100FB400031324080F390A128A11CE210A128A1146
:100FC4000A128A1112210A128A110A128A113F2165
:100FD4000A128A110D300A128A113F210A128A114B
:100FE4000A300A128A113F210A128A110800831258
:100FF4000313B60183010A128A11C92A44346934DD
:10100400673469347434653420346F3420346E3476
:1010140075346D34653472346F34203463346F3412
:10102400723472346534733470346F346E346434AF
:1010340065346E3474346534203461346F34203450
:101044006434693461342034643461342034733456
:1010540065346D3461346E3461343A342034003490
:1010640044346934673469347434653420346F34F7
:101074007334203473346534673475346E346434B3
:101084006F3473343A34203400344434693467346C
:1010940069347434653420346F34733420346D34DB
:1010A40069346E34753474346F3473343A342034A0
:1010B4000034523465346C346F34673469346F34BB
:1010C400203463346F346E34663469346734753471
:1010D4007234613464346F340034323420342D3447
:1010E400203453346534673475346E346434613475
:1010F4002034463465346934723461342034003425
:10110400353420342D3420345134753469346E34FC
:10111400743461342034463465346934723461344F
:1011240020340034343420342D3420345134753494
:10113400613472347434613420344634653469342F
:101144007234613420340034333420342D34203468
:101154005434653472346334613420344634653431
:1011640069347234613420340034363420342D34FC
:101174002034533465347834743461342034463440
:10118400653469347234613420340034443469344D
:101194006734693474346534203461342034483419
:1011A4006F34723461343A34203400344434693452
:1011B400673469347434653420346F3420346434CF
:1011C400693461343A342034003444346934673443
:1011D40069347434653420346F34203461346E34AB
:1011E4006F343A3420340034443469346734693415
:1011F4007434653420346F3420346D34653473347E
:101204003A3420340034373420342D3420345334E9
:1012140061346234613464346F34203400343134E2
:1012240020342D34203444346F346D3469346E34B6
:1012340067346F340034203444346F346D3469348B
:0A1244006E3467346F342034003438
:08400000FF3FFF3FFF3FFF3FC0
:02400E003A3F37
:00000001FF
